{
    "_format": "hh-sol-artifact-1",
    "contractName": "BuyMeACoffee",
    "sourceName": "contracts/BuyMeACoffee.sol",
    "abi": [
        {
            "inputs": [],
            "stateMutability": "nonpayable",
            "type": "constructor"
        },
        {
            "anonymous": false,
            "inputs": [
                {
                    "indexed": true,
                    "internalType": "address",
                    "name": "from",
                    "type": "address"
                },
                {
                    "indexed": false,
                    "internalType": "uint256",
                    "name": "timestamp",
                    "type": "uint256"
                },
                {
                    "indexed": false,
                    "internalType": "string",
                    "name": "name",
                    "type": "string"
                },
                {
                    "indexed": false,
                    "internalType": "string",
                    "name": "message",
                    "type": "string"
                }
            ],
            "name": "NewMemo",
            "type": "event"
        },
        {
            "inputs": [
                {
                    "internalType": "string",
                    "name": "_name",
                    "type": "string"
                },
                {
                    "internalType": "string",
                    "name": "_message",
                    "type": "string"
                }
            ],
            "name": "buyCoffee",
            "outputs": [],
            "stateMutability": "payable",
            "type": "function"
        },
        {
            "inputs": [],
            "name": "getContractBalance",
            "outputs": [
                {
                    "internalType": "uint256",
                    "name": "",
                    "type": "uint256"
                }
            ],
            "stateMutability": "view",
            "type": "function"
        },
        {
            "inputs": [],
            "name": "getMemos",
            "outputs": [
                {
                    "components": [
                        {
                            "internalType": "address",
                            "name": "from",
                            "type": "address"
                        },
                        {
                            "internalType": "uint256",
                            "name": "timestamp",
                            "type": "uint256"
                        },
                        {
                            "internalType": "string",
                            "name": "name",
                            "type": "string"
                        },
                        {
                            "internalType": "string",
                            "name": "message",
                            "type": "string"
                        }
                    ],
                    "internalType": "struct BuyMeACoffee.Memo[]",
                    "name": "",
                    "type": "tuple[]"
                }
            ],
            "stateMutability": "view",
            "type": "function"
        },
        {
            "inputs": [],
            "name": "withdraw",
            "outputs": [],
            "stateMutability": "nonpayable",
            "type": "function"
        }
    ],
    "bytecode": "0x608060405234801561001057600080fd5b50600180546001600160a01b03191633179055610770806100326000396000f3fe60806040526004361061003f5760003560e01c8063204206e1146100445780633ccfd60b146100595780636f9fb98a1461006e578063865c51721461008e575b600080fd5b61005761005236600461058b565b6100b0565b005b34801561006557600080fd5b50610057610246565b34801561007a57600080fd5b506040514781526020015b60405180910390f35b34801561009a57600080fd5b506100a36102c8565b6040516100859190610637565b600034116101055760405162461bcd60e51b815260206004820152601b60248201527f43616e27742062757920636f666665652077697468203020455448000000000060448201526064015b60405180910390fd5b604080516080810182523381524260208083019182529282018581526060830185905260008054600181018255908052835160049091027f290decd9548b62a8d60345a988386fc84ba6bc95484008f6362f93160ef3e563810180546001600160a01b03939093166001600160a01b031990931692909217825592517f290decd9548b62a8d60345a988386fc84ba6bc95484008f6362f93160ef3e56484015590518051939491936101de937f290decd9548b62a8d60345a988386fc84ba6bc95484008f6362f93160ef3e5650192919091019061046b565b50606082015180516101fa91600384019160209091019061046b565b505050336001600160a01b03167fc56140e05f516509ae28110e0f72e17558a7561630dad2647c3ae87d986e365c42848460405161023a939291906106dd565b60405180910390a25050565b600047116102965760405162461bcd60e51b815260206004820152601860248201527f436f6e74726163742062616c616e6365206973207a65726f000000000000000060448201526064016100fc565b6001546001600160a01b03166108fc476040518115909202916000818181858888f193505050506102c657600080fd5b565b60606000805480602002602001604051908101604052809291908181526020016000905b82821015610462576000848152602090819020604080516080810182526004860290920180546001600160a01b031683526001810154938301939093526002830180549293929184019161033f90610712565b80601f016020809104026020016040519081016040528092919081815260200182805461036b90610712565b80156103b85780601f1061038d576101008083540402835291602001916103b8565b820191906000526020600020905b81548152906001019060200180831161039b57829003601f168201915b505050505081526020016003820180546103d190610712565b80601f01602080910402602001604051908101604052809291908181526020018280546103fd90610712565b801561044a5780601f1061041f5761010080835404028352916020019161044a565b820191906000526020600020905b81548152906001019060200180831161042d57829003601f168201915b505050505081525050815260200190600101906102ec565b50505050905090565b82805461047790610712565b90600052602060002090601f01602090048101928261049957600085556104df565b82601f106104b257805160ff19168380011785556104df565b828001600101855582156104df579182015b828111156104df5782518255916020019190600101906104c4565b506104eb9291506104ef565b5090565b5b808211156104eb57600081556001016104f0565b600082601f830112610514578081fd5b813567ffffffffffffffff8082111561052f5761052f61074d565b604051601f8301601f19908116603f011681019082821181831017156105575761055761074d565b8160405283815286602085880101111561056f578485fd5b8360208701602083013792830160200193909352509392505050565b6000806040838503121561059d578182fd5b823567ffffffffffffffff808211156105b4578384fd5b6105c086838701610504565b935060208501359150808211156105d5578283fd5b506105e285828601610504565b9150509250929050565b60008151808452815b81811015610611576020818501810151868301820152016105f5565b818111156106225782602083870101525b50601f01601f19169290920160200192915050565b60006020808301818452808551808352604092508286019150828160051b870101848801865b838110156106cf57888303603f19018552815180516001600160a01b0316845287810151888501528681015160808886018190529061069e828701826105ec565b915050606080830151925085820381870152506106bb81836105ec565b96890196945050509086019060010161065d565b509098975050505050505050565b8381526060602082015260006106f660608301856105ec565b828103604084015261070881856105ec565b9695505050505050565b600181811c9082168061072657607f821691505b6020821081141561074757634e487b7160e01b600052602260045260246000fd5b50919050565b634e487b7160e01b600052604160045260246000fdfea164736f6c6343000804000a",
    "linkReferences": {},
    "deployedLinkReferences": {}
}